{
  "contractName": "EsmRelayRecipient",
  "abi": [
    {
      "constant": true,
      "inputs": [
        {
          "name": "origSender",
          "type": "address"
        },
        {
          "name": "msgData",
          "type": "bytes"
        }
      ],
      "name": "getSenderFromData",
      "outputs": [
        {
          "name": "",
          "type": "address"
        }
      ],
      "payable": false,
      "stateMutability": "view",
      "type": "function",
      "signature": "0x1da97ea3"
    },
    {
      "constant": true,
      "inputs": [],
      "name": "getSender",
      "outputs": [
        {
          "name": "",
          "type": "address"
        }
      ],
      "payable": false,
      "stateMutability": "view",
      "type": "function",
      "signature": "0x5e01eb5a"
    },
    {
      "constant": true,
      "inputs": [],
      "name": "getHubAddr",
      "outputs": [
        {
          "name": "",
          "type": "address"
        }
      ],
      "payable": false,
      "stateMutability": "view",
      "type": "function",
      "signature": "0x74e861d6"
    },
    {
      "constant": true,
      "inputs": [],
      "name": "getRecipientBalance",
      "outputs": [
        {
          "name": "",
          "type": "uint256"
        }
      ],
      "payable": false,
      "stateMutability": "view",
      "type": "function",
      "signature": "0xac570411"
    },
    {
      "constant": true,
      "inputs": [],
      "name": "getMessageData",
      "outputs": [
        {
          "name": "",
          "type": "bytes"
        }
      ],
      "payable": false,
      "stateMutability": "view",
      "type": "function",
      "signature": "0xe20c6d3d"
    },
    {
      "inputs": [
        {
          "name": "_rhub",
          "type": "address"
        }
      ],
      "payable": false,
      "stateMutability": "nonpayable",
      "type": "constructor",
      "signature": "constructor"
    },
    {
      "constant": true,
      "inputs": [
        {
          "name": "relay",
          "type": "address"
        },
        {
          "name": "from",
          "type": "address"
        },
        {
          "name": "encodedFunction",
          "type": "bytes"
        },
        {
          "name": "transactionFee",
          "type": "uint256"
        },
        {
          "name": "gasPrice",
          "type": "uint256"
        },
        {
          "name": "gasLimit",
          "type": "uint256"
        },
        {
          "name": "nonce",
          "type": "uint256"
        },
        {
          "name": "approvalData",
          "type": "bytes"
        },
        {
          "name": "maxPossibleCharge",
          "type": "uint256"
        }
      ],
      "name": "acceptRelayedCall",
      "outputs": [
        {
          "name": "",
          "type": "uint256"
        },
        {
          "name": "",
          "type": "bytes"
        }
      ],
      "payable": false,
      "stateMutability": "view",
      "type": "function",
      "signature": "0x83947ea0"
    },
    {
      "constant": false,
      "inputs": [
        {
          "name": "context",
          "type": "bytes"
        }
      ],
      "name": "preRelayedCall",
      "outputs": [
        {
          "name": "",
          "type": "bytes32"
        }
      ],
      "payable": false,
      "stateMutability": "nonpayable",
      "type": "function",
      "signature": "0x80274db7"
    },
    {
      "constant": false,
      "inputs": [
        {
          "name": "context",
          "type": "bytes"
        },
        {
          "name": "success",
          "type": "bool"
        },
        {
          "name": "actualCharge",
          "type": "uint256"
        },
        {
          "name": "preRetVal",
          "type": "bytes32"
        }
      ],
      "name": "postRelayedCall",
      "outputs": [],
      "payable": false,
      "stateMutability": "nonpayable",
      "type": "function",
      "signature": "0xe06e0e22"
    }
  ],
  "bytecode": "0x608060405234801561001057600080fd5b50604051602080610c4b8339810180604052602081101561003057600080fd5b81019080805190602001909291905050506100598161005f640100000000026401000000009004565b506101d4565b806000806101000a81548173ffffffffffffffffffffffffffffffffffffffff021916908373ffffffffffffffffffffffffffffffffffffffff1602179055506100b66100ba640100000000026401000000009004565b5050565b60006100d36101ab640100000000026401000000009004565b73ffffffffffffffffffffffffffffffffffffffff166370a08231306040518263ffffffff167c0100000000000000000000000000000000000000000000000000000000028152600401808273ffffffffffffffffffffffffffffffffffffffff1673ffffffffffffffffffffffffffffffffffffffff16815260200191505060206040518083038186803b15801561016b57600080fd5b505afa15801561017f573d6000803e3d6000fd5b505050506040513d602081101561019557600080fd5b8101908080519060200190929190505050905090565b60008060009054906101000a900473ffffffffffffffffffffffffffffffffffffffff16905090565b610a68806101e36000396000f3fe608060405234801561001057600080fd5b50600436106100a5576000357c01000000000000000000000000000000000000000000000000000000009004806383947ea01161007857806383947ea0146102e6578063ac570411146104a7578063e06e0e22146104c5578063e20c6d3d1461055e576100a5565b80631da97ea3146100aa5780635e01eb5a146101c557806374e861d61461020f57806380274db714610259575b600080fd5b610183600480360360408110156100c057600080fd5b81019080803573ffffffffffffffffffffffffffffffffffffffff169060200190929190803590602001906401000000008111156100fd57600080fd5b82018360208201111561010f57600080fd5b8035906020019184600183028401116401000000008311171561013157600080fd5b91908080601f016020809104026020016040519081016040528093929190818152602001838380828437600081840152601f19601f8201169050808301925050505050505091929192905050506105e1565b604051808273ffffffffffffffffffffffffffffffffffffffff1673ffffffffffffffffffffffffffffffffffffffff16815260200191505060405180910390f35b6101cd61063d565b604051808273ffffffffffffffffffffffffffffffffffffffff1673ffffffffffffffffffffffffffffffffffffffff16815260200191505060405180910390f35b610217610693565b604051808273ffffffffffffffffffffffffffffffffffffffff1673ffffffffffffffffffffffffffffffffffffffff16815260200191505060405180910390f35b6102d06004803603602081101561026f57600080fd5b810190808035906020019064010000000081111561028c57600080fd5b82018360208201111561029e57600080fd5b803590602001918460018302840111640100000000831117156102c057600080fd5b90919293919293905050506106bc565b6040518082815260200191505060405180910390f35b61042560048036036101208110156102fd57600080fd5b81019080803573ffffffffffffffffffffffffffffffffffffffff169060200190929190803573ffffffffffffffffffffffffffffffffffffffff1690602001909291908035906020019064010000000081111561035a57600080fd5b82018360208201111561036c57600080fd5b8035906020019184600183028401116401000000008311171561038e57600080fd5b909192939192939080359060200190929190803590602001909291908035906020019092919080359060200190929190803590602001906401000000008111156103d757600080fd5b8201836020820111156103e957600080fd5b8035906020019184600183028401116401000000008311171561040b57600080fd5b9091929391929390803590602001909291905050506106cd565b6040518083815260200180602001828103825283818151815260200191508051906020019080838360005b8381101561046b578082015181840152602081019050610450565b50505050905090810190601f1680156104985780820380516001836020036101000a031916815260200191505b50935050505060405180910390f35b6104af6106fa565b6040518082815260200191505060405180910390f35b61055c600480360360808110156104db57600080fd5b81019080803590602001906401000000008111156104f857600080fd5b82018360208201111561050a57600080fd5b8035906020019184600183028401116401000000008311171561052c57600080fd5b909192939192939080351515906020019092919080359060200190929190803590602001909291905050506107dc565b005b6105666107e3565b6040518080602001828103825283818151815260200191508051906020019080838360005b838110156105a657808201518184015260208101905061058b565b50505050905090810190601f1680156105d35780820380516001836020036101000a031916815260200191505b509250505060405180910390f35b6000808390506105ef610693565b73ffffffffffffffffffffffffffffffffffffffff168473ffffffffffffffffffffffffffffffffffffffff16141561063357610630836014855103610961565b90505b8091505092915050565b600061068e336000368080601f016020809104026020016040519081016040528093929190818152602001838380828437600081840152601f19601f820116905080830192505050505050506105e1565b905090565b60008060009054906101000a900473ffffffffffffffffffffffffffffffffffffffff16905090565b60006201e240600102905092915050565b60006060600080905060405180602001604052806000815250915091509b509b9950505050505050505050565b60006107046109ed565b73ffffffffffffffffffffffffffffffffffffffff166370a08231306040518263ffffffff167c0100000000000000000000000000000000000000000000000000000000028152600401808273ffffffffffffffffffffffffffffffffffffffff1673ffffffffffffffffffffffffffffffffffffffff16815260200191505060206040518083038186803b15801561079c57600080fd5b505afa1580156107b0573d6000803e3d6000fd5b505050506040513d60208110156107c657600080fd5b8101908080519060200190929190505050905090565b5050505050565b6060806000368080601f016020809104026020016040519081016040528093929190818152602001838380828437600081840152601f19601f820116905080830192505050505050509050610836610693565b73ffffffffffffffffffffffffffffffffffffffff163373ffffffffffffffffffffffffffffffffffffffff16141561095a5760146000369050036040519080825280601f01601f1916602001820160405280156108a35781602001600182028038833980820191505090505b50905060008090505b8151811015610958576000368281811015156108c457fe5b905001357f010000000000000000000000000000000000000000000000000000000000000090047f010000000000000000000000000000000000000000000000000000000000000002828281518110151561091b57fe5b9060200101907effffffffffffffffffffffffffffffffffffffffffffffffffffffffffffff1916908160001a90535080806001019150506108ac565b505b8091505090565b6000601482018351101515156109c2576040517f08c379a0000000000000000000000000000000000000000000000000000000008152600401808060200182810382526026815260200180610a176026913960400191505060405180910390fd5b60148201915073ffffffffffffffffffffffffffffffffffffffff8284015116905080905092915050565b60008060009054906101000a900473ffffffffffffffffffffffffffffffffffffffff1690509056fe475245415445525f4f525f455155414c5f544f5f32305f4c454e4754485f5245515549524544a165627a7a72305820dce528a957cc12b23c0fdc44c211f6996e650d8c9b7e533e02cb37bc0f848e5f0029",
  "source": "pragma solidity ^0.5.0;\r\n\r\nimport \"tabookey-gasless/contracts/GsnUtils.sol\";\r\nimport \"tabookey-gasless/contracts/IRelayHub.sol\";\r\nimport \"tabookey-gasless/contracts/RelayRecipient.sol\";\r\n\r\ncontract EsmRelayRecipient is RelayRecipient {\r\n  constructor(IRelayHub _rhub) public {\r\n      setRelayHub(_rhub);\r\n  }\r\n \r\n  function acceptRelayedCall\r\n    (address relay, address from, bytes calldata encodedFunction, uint256 transactionFee, uint256 gasPrice, uint256 gasLimit, uint256 nonce, bytes calldata approvalData, uint256 maxPossibleCharge) external view returns (uint256, bytes memory) {\r\n        return (0, \"\");\r\n  }\r\n\r\n  function preRelayedCall(bytes calldata context) /*relayHubOnly*/ external returns (bytes32) {\r\n    return bytes32(uint(123456));\r\n  }\r\n\r\n  function postRelayedCall(bytes calldata context, bool success, uint actualCharge, bytes32 preRetVal) /*relayHubOnly*/ external {\r\n  }\r\n}",
  "sourcePath": "C:/lib/3DEV/esm-token/contracts/EsmRelayRecipient.sol",
  "compiler": {
    "name": "solc",
    "version": "0.5.5+commit.47a71e8f.Emscripten.clang"
  },
  "schemaVersion": "3.0.5",
  "updatedAt": "2019-09-20T21:19:18.499Z",
  "devdoc": {
    "methods": {}
  },
  "userdoc": {
    "methods": {
      "getRecipientBalance()": {
        "notice": "return the balance of this contract. Note that this method will revert on configuration error (invalid relay address)"
      },
      "getSender()": {
        "notice": "return the sender of this call. if the call came through the valid RelayHub, return the original sender. otherwise, return `msg.sender` should be used in the contract anywhere instead of msg.sender"
      }
    }
  }
}